{
  "contractName": "CustomerStorageOffChain",
  "abi": [
    {
      "inputs": [],
      "stateMutability": "nonpayable",
      "type": "constructor"
    },
    {
      "anonymous": false,
      "inputs": [
        {
          "indexed": true,
          "internalType": "uint256",
          "name": "customerIndex",
          "type": "uint256"
        },
        {
          "indexed": false,
          "internalType": "bytes32",
          "name": "chameleonHash",
          "type": "bytes32"
        }
      ],
      "name": "CustomerHashStored",
      "type": "event"
    },
    {
      "inputs": [],
      "name": "customerCount",
      "outputs": [
        {
          "internalType": "uint256",
          "name": "",
          "type": "uint256"
        }
      ],
      "stateMutability": "view",
      "type": "function"
    },
    {
      "inputs": [
        {
          "internalType": "uint256",
          "name": "",
          "type": "uint256"
        }
      ],
      "name": "customerHashes",
      "outputs": [
        {
          "internalType": "bytes32",
          "name": "chameleonHash",
          "type": "bytes32"
        },
        {
          "internalType": "address",
          "name": "uploader",
          "type": "address"
        }
      ],
      "stateMutability": "view",
      "type": "function"
    },
    {
      "inputs": [
        {
          "internalType": "bytes32",
          "name": "chameleonHash",
          "type": "bytes32"
        }
      ],
      "name": "storeCustomerHash",
      "outputs": [],
      "stateMutability": "nonpayable",
      "type": "function"
    },
    {
      "inputs": [
        {
          "internalType": "uint256",
          "name": "customerIndex",
          "type": "uint256"
        }
      ],
      "name": "getCustomerHash",
      "outputs": [
        {
          "internalType": "bytes32",
          "name": "chameleonHash",
          "type": "bytes32"
        },
        {
          "internalType": "address",
          "name": "uploader",
          "type": "address"
        }
      ],
      "stateMutability": "view",
      "type": "function"
    }
  ],
  "bytecode": "0x608060405234801561001057600080fd5b50600060015561029c806100256000396000f3fe608060405234801561001057600080fd5b506004361061004c5760003560e01c806320a1e8ce1461005157806394e23007146100665780639757e8a314610090578063c7556624146100a5575b600080fd5b61006461005f3660046101d0565b6100b8565b005b6100796100743660046101d0565b610155565b6040516100879291906101f1565b60405180910390f35b6100986101a8565b60405161008791906101e8565b6100796100b33660046101d0565b6101ae565b604080518082018252828152336020808301918252600180546000908152918290529084902092518355905191810180546001600160a01b0319166001600160a01b03909316929092179091555490517f4a0cf205575117880f57a4af52f9609ce92095fcc76e4a91bc7832e0de014641906101359084906101e8565b60405180910390a26001805490600061014d8361023f565b919050555050565b60008060015483106101825760405162461bcd60e51b815260040161017990610208565b60405180910390fd5b5050600081815260208190526040902080546001909101546001600160a01b0316915091565b60015481565b600060208190529081526040902080546001909101546001600160a01b031682565b6000602082840312156101e1578081fd5b5035919050565b90815260200190565b9182526001600160a01b0316602082015260400190565b60208082526017908201527f437573746f6d657220646f6573206e6f74206578697374000000000000000000604082015260600190565b600060001982141561025f57634e487b7160e01b81526011600452602481fd5b506001019056fea2646970667358221220bc00be84414e5cd79ddca356ca1f368880f439d209f942b853bb40d2582429d964736f6c63430008000033",
  "immutableReferences": {},
  "source": "// SPDX-License-Identifier: MIT\r\npragma solidity ^0.8.0;\r\n\r\ncontract CustomerStorageOffChain {\r\n    struct CustomerHash {\r\n        bytes32 chameleonHash;\r\n        address uploader;\r\n    }\r\n\r\n    mapping(uint256 => CustomerHash) public customerHashes;\r\n    uint256 public customerCount;\r\n\r\n    event CustomerHashStored(uint256 indexed customerIndex, bytes32 chameleonHash);\r\n\r\n    constructor() {\r\n        customerCount = 0;\r\n    }\r\n\r\n    function storeCustomerHash(bytes32 chameleonHash) public {\r\n        customerHashes[customerCount] = CustomerHash(\r\n            chameleonHash,\r\n            msg.sender\r\n        );\r\n\r\n        emit CustomerHashStored(customerCount, chameleonHash);\r\n        customerCount++;\r\n    }\r\n\r\n    function getCustomerHash(uint256 customerIndex) \r\n        public \r\n        view \r\n        returns (\r\n            bytes32 chameleonHash,\r\n            address uploader\r\n        ) \r\n    {\r\n        require(customerIndex < customerCount, \"Customer does not exist\");\r\n\r\n        CustomerHash storage customer = customerHashes[customerIndex];\r\n        return (\r\n            customer.chameleonHash,\r\n            customer.uploader\r\n        );\r\n    }\r\n}\r\n",
  "sourcePath": "C:\\Users\\WINDOWS\\Documents\\CSS400_GDPR-RBC\\contracts\\Off-chain.sol",
  "compiler": {
    "name": "solc",
    "version": "0.8.0+commit.c7dfd78e.Emscripten.clang"
  },
  "schemaVersion": "3.4.16",
  "updatedAt": "2025-03-11T15:16:05.580Z",
  "devdoc": {
    "kind": "dev",
    "methods": {},
    "version": 1
  },
  "userdoc": {
    "kind": "user",
    "methods": {},
    "version": 1
  }
}