{
  "contractName": "CustomerStorageFull",
  "abi": [
    {
      "inputs": [],
      "stateMutability": "nonpayable",
      "type": "constructor"
    },
    {
      "anonymous": false,
      "inputs": [
        {
          "indexed": true,
          "internalType": "uint256",
          "name": "customerIndex",
          "type": "uint256"
        },
        {
          "indexed": false,
          "internalType": "bytes32",
          "name": "chameleonHash",
          "type": "bytes32"
        }
      ],
      "name": "CustomerAdded",
      "type": "event"
    },
    {
      "anonymous": false,
      "inputs": [
        {
          "indexed": true,
          "internalType": "uint256",
          "name": "customerIndex",
          "type": "uint256"
        }
      ],
      "name": "CustomerRedacted",
      "type": "event"
    },
    {
      "inputs": [],
      "name": "customerCount",
      "outputs": [
        {
          "internalType": "uint256",
          "name": "",
          "type": "uint256"
        }
      ],
      "stateMutability": "view",
      "type": "function",
      "constant": true
    },
    {
      "inputs": [
        {
          "internalType": "uint256",
          "name": "",
          "type": "uint256"
        }
      ],
      "name": "customerRecords",
      "outputs": [
        {
          "internalType": "bytes32",
          "name": "chameleonHash",
          "type": "bytes32"
        },
        {
          "internalType": "bytes32",
          "name": "encryptedNatID",
          "type": "bytes32"
        },
        {
          "internalType": "bytes32",
          "name": "encryptedConsent",
          "type": "bytes32"
        },
        {
          "internalType": "bytes32",
          "name": "encryptedCID",
          "type": "bytes32"
        },
        {
          "internalType": "bytes32",
          "name": "encrypted_h_FI_ID",
          "type": "bytes32"
        },
        {
          "internalType": "bytes32",
          "name": "encrypted_sig_FI_ID",
          "type": "bytes32"
        },
        {
          "internalType": "address",
          "name": "uploader",
          "type": "address"
        },
        {
          "internalType": "bool",
          "name": "isRedacted",
          "type": "bool"
        }
      ],
      "stateMutability": "view",
      "type": "function",
      "constant": true
    },
    {
      "inputs": [
        {
          "internalType": "bytes32",
          "name": "chameleonHash",
          "type": "bytes32"
        },
        {
          "internalType": "bytes32",
          "name": "encryptedNatID",
          "type": "bytes32"
        },
        {
          "internalType": "bytes32",
          "name": "encryptedConsent",
          "type": "bytes32"
        },
        {
          "internalType": "bytes32",
          "name": "encryptedCID",
          "type": "bytes32"
        },
        {
          "internalType": "bytes32",
          "name": "encrypted_h_FI_ID",
          "type": "bytes32"
        },
        {
          "internalType": "bytes32",
          "name": "encrypted_sig_FI_ID",
          "type": "bytes32"
        }
      ],
      "name": "addCustomer",
      "outputs": [],
      "stateMutability": "nonpayable",
      "type": "function"
    },
    {
      "inputs": [
        {
          "internalType": "uint256",
          "name": "customerIndex",
          "type": "uint256"
        }
      ],
      "name": "redactCustomer",
      "outputs": [],
      "stateMutability": "nonpayable",
      "type": "function"
    },
    {
      "inputs": [
        {
          "internalType": "uint256",
          "name": "customerIndex",
          "type": "uint256"
        }
      ],
      "name": "getCustomer",
      "outputs": [
        {
          "internalType": "bytes32",
          "name": "chameleonHash",
          "type": "bytes32"
        },
        {
          "internalType": "bytes32",
          "name": "encryptedNatID",
          "type": "bytes32"
        },
        {
          "internalType": "bytes32",
          "name": "encryptedConsent",
          "type": "bytes32"
        },
        {
          "internalType": "bytes32",
          "name": "encryptedCID",
          "type": "bytes32"
        },
        {
          "internalType": "bytes32",
          "name": "encrypted_h_FI_ID",
          "type": "bytes32"
        },
        {
          "internalType": "bytes32",
          "name": "encrypted_sig_FI_ID",
          "type": "bytes32"
        },
        {
          "internalType": "address",
          "name": "uploader",
          "type": "address"
        },
        {
          "internalType": "bool",
          "name": "isRedacted",
          "type": "bool"
        }
      ],
      "stateMutability": "view",
      "type": "function",
      "constant": true
    }
  ],
  "bytecode": "0x608060405234801561001057600080fd5b5060006001556104f8806100256000396000f3fe608060405234801561001057600080fd5b50600436106100575760003560e01c80637d77b2e91461005c5780639757e8a314610071578063bfdf1cb01461008f578063dba517e8146100b6578063eb876f27146100c9575b600080fd5b61006f61006a366004610396565b6100dc565b005b6100796101e1565b60405161008691906103f0565b60405180910390f35b6100a261009d3660046103d8565b6101e7565b6040516100869897969594939291906103f9565b61006f6100c43660046103d8565b610239565b6100a26100d73660046103d8565b61030e565b60408051610100810182528781526020808201888152828401888152606084018881526080850188815260a086018881523360c08801908152600060e0890181815260018054835298829052908a9020985189559551888801559351600288015591516003870155516004860155516005850155516006909301805491511515600160a01b0260ff60a01b196001600160a01b03959095166001600160a01b03199093169290921793909316179091555490517f6b3137ae2aacb80896e1450984b3a228d82f28b8aae87d53065d156589e7a82e906101bc9089906103f0565b60405180910390a2600180549060006101d48361049b565b9190505550505050505050565b60015481565b600060208190529081526040902080546001820154600283015460038401546004850154600586015460069096015494959394929391929091906001600160a01b03811690600160a01b900460ff1688565b60015481106102635760405162461bcd60e51b815260040161025a9061043a565b60405180910390fd5b600081815260208190526040902060060154600160a01b900460ff161561029c5760405162461bcd60e51b815260040161025a90610471565b6000818152602081905260408082208281556001810183905560028101839055600381018390556004810183905560058101839055600601805460ff60a01b1916600160a01b1790555182917fbe1b025d5bd49beaf51aa52f63659f682048c45ffa3b4d2aa15644443830c74791a250565b600080600080600080600080600154891061033b5760405162461bcd60e51b815260040161025a9061043a565b5050506000958652505050602083905250506040902080546001820154600283015460038401546004850154600586015460069096015494969395929491939092916001600160a01b03811691600160a01b90910460ff1690565b60008060008060008060c087890312156103ae578182fd5b505084359660208601359650604086013595606081013595506080810135945060a0013592509050565b6000602082840312156103e9578081fd5b5035919050565b90815260200190565b978852602088019690965260408701949094526060860192909252608085015260a08401526001600160a01b031660c0830152151560e08201526101000190565b60208082526017908201527f437573746f6d657220646f6573206e6f74206578697374000000000000000000604082015260600190565b60208082526010908201526f105b1c9958591e481c99591858dd195960821b604082015260600190565b60006000198214156104bb57634e487b7160e01b81526011600452602481fd5b506001019056fea26469706673582212206a21916e9b8332a80749631c5852adf7a969c8ec9da1d90a95c60683fccaf6a864736f6c63430008000033",
  "immutableReferences": {},
  "source": "// SPDX-License-Identifier: MIT\r\npragma solidity ^0.8.0;\r\n\r\ncontract CustomerStorageFull {\r\n    struct CustomerTX {\r\n        bytes32 chameleonHash; // Precomputed hash\r\n        bytes32 encryptedNatID;\r\n        bytes32 encryptedConsent;\r\n        bytes32 encryptedCID;\r\n        bytes32 encrypted_h_FI_ID;\r\n        bytes32 encrypted_sig_FI_ID;\r\n        address uploader;\r\n        bool isRedacted; // Indicates whether this record has been redacted\r\n    }\r\n\r\n    mapping(uint256 => CustomerTX) public customerRecords;\r\n    uint256 public customerCount;\r\n\r\n    event CustomerAdded(uint256 indexed customerIndex, bytes32 chameleonHash);\r\n    event CustomerRedacted(uint256 indexed customerIndex);\r\n\r\n    constructor() {\r\n        customerCount = 0;\r\n    }\r\n\r\n    function addCustomer(\r\n        bytes32 chameleonHash,\r\n        bytes32 encryptedNatID,\r\n        bytes32 encryptedConsent,\r\n        bytes32 encryptedCID,\r\n        bytes32 encrypted_h_FI_ID,\r\n        bytes32 encrypted_sig_FI_ID\r\n    ) public {\r\n        customerRecords[customerCount] = CustomerTX(\r\n            chameleonHash,\r\n            encryptedNatID,\r\n            encryptedConsent,\r\n            encryptedCID,\r\n            encrypted_h_FI_ID,\r\n            encrypted_sig_FI_ID,\r\n            msg.sender,\r\n            false // Default: not redacted\r\n        );\r\n\r\n        emit CustomerAdded(customerCount, chameleonHash);\r\n        customerCount++;\r\n    }\r\n\r\n    function redactCustomer(uint256 customerIndex) public {\r\n        require(customerIndex < customerCount, \"Customer does not exist\");\r\n        require(!customerRecords[customerIndex].isRedacted, \"Already redacted\");\r\n\r\n        // Set values to null (on-chain redaction)\r\n        customerRecords[customerIndex].chameleonHash = bytes32(0);\r\n        customerRecords[customerIndex].encryptedNatID = bytes32(0);\r\n        customerRecords[customerIndex].encryptedConsent = bytes32(0);\r\n        customerRecords[customerIndex].encryptedCID = bytes32(0);\r\n        customerRecords[customerIndex].encrypted_h_FI_ID = bytes32(0);\r\n        customerRecords[customerIndex].encrypted_sig_FI_ID = bytes32(0);\r\n        customerRecords[customerIndex].isRedacted = true;\r\n\r\n        emit CustomerRedacted(customerIndex);\r\n    }\r\n\r\n    function getCustomer(uint256 customerIndex) \r\n        public \r\n        view \r\n        returns (\r\n            bytes32 chameleonHash,\r\n            bytes32 encryptedNatID,\r\n            bytes32 encryptedConsent,\r\n            bytes32 encryptedCID,\r\n            bytes32 encrypted_h_FI_ID,\r\n            bytes32 encrypted_sig_FI_ID,\r\n            address uploader,\r\n            bool isRedacted\r\n        ) \r\n    {\r\n        require(customerIndex < customerCount, \"Customer does not exist\");\r\n\r\n        CustomerTX storage customer = customerRecords[customerIndex];\r\n        return (\r\n            customer.chameleonHash,\r\n            customer.encryptedNatID,\r\n            customer.encryptedConsent,\r\n            customer.encryptedCID,\r\n            customer.encrypted_h_FI_ID,\r\n            customer.encrypted_sig_FI_ID,\r\n            customer.uploader,\r\n            customer.isRedacted\r\n        );\r\n    }\r\n}\r\n",
  "sourcePath": "C:\\Users\\WINDOWS\\Documents\\CSS400_GDPR-RBC\\contracts\\AddCust.sol",
  "compiler": {
    "name": "solc",
    "version": "0.8.0+commit.c7dfd78e.Emscripten.clang"
  },
  "schemaVersion": "3.4.16",
  "updatedAt": "2025-03-11T15:16:07.376Z",
  "networkType": "ethereum",
  "devdoc": {
    "kind": "dev",
    "methods": {},
    "version": 1
  },
  "userdoc": {
    "kind": "user",
    "methods": {},
    "version": 1
  }
}