{
  "contractName": "eKYC",
  "abi": [
    {
      "inputs": [
        {
          "internalType": "string",
          "name": "hashedPassword",
          "type": "string"
        }
      ],
      "name": "registerUser",
      "outputs": [],
      "stateMutability": "nonpayable",
      "type": "function"
    },
    {
      "inputs": [
        {
          "internalType": "string",
          "name": "hashedPassword",
          "type": "string"
        }
      ],
      "name": "verifyUser",
      "outputs": [
        {
          "internalType": "bool",
          "name": "",
          "type": "bool"
        }
      ],
      "stateMutability": "view",
      "type": "function",
      "constant": true
    },
    {
      "inputs": [
        {
          "internalType": "address",
          "name": "user",
          "type": "address"
        }
      ],
      "name": "getUserPassword",
      "outputs": [
        {
          "internalType": "string",
          "name": "",
          "type": "string"
        }
      ],
      "stateMutability": "view",
      "type": "function",
      "constant": true
    }
  ],
  "bytecode": "0x608060405234801561001057600080fd5b506109dd806100206000396000f3fe608060405234801561001057600080fd5b50600436106100415760003560e01c8063704f1b9414610046578063b8153a3f14610062578063e600c81714610092575b600080fd5b610060600480360381019061005b919061056e565b6100c2565b005b61007c60048036038101906100779190610545565b6101a5565b6040516100899190610770565b60405180910390f35b6100ac60048036038101906100a7919061056e565b610303565b6040516100b99190610755565b60405180910390f35b60008060003373ffffffffffffffffffffffffffffffffffffffff1673ffffffffffffffffffffffffffffffffffffffff168152602001908152602001600020805461010d906108ef565b90501461014f576040517f08c379a0000000000000000000000000000000000000000000000000000000008152600401610146906107b2565b60405180910390fd5b806000803373ffffffffffffffffffffffffffffffffffffffff1673ffffffffffffffffffffffffffffffffffffffff16815260200190815260200160002090805190602001906101a1929190610425565b5050565b606060008060008473ffffffffffffffffffffffffffffffffffffffff1673ffffffffffffffffffffffffffffffffffffffff16815260200190815260200160002080546101f2906108ef565b90501415610235576040517f08c379a000000000000000000000000000000000000000000000000000000000815260040161022c90610792565b60405180910390fd5b6000808373ffffffffffffffffffffffffffffffffffffffff1673ffffffffffffffffffffffffffffffffffffffff168152602001908152602001600020805461027e906108ef565b80601f01602080910402602001604051908101604052809291908181526020018280546102aa906108ef565b80156102f75780601f106102cc576101008083540402835291602001916102f7565b820191906000526020600020905b8154815290600101906020018083116102da57829003601f168201915b50505050509050919050565b6000806000803373ffffffffffffffffffffffffffffffffffffffff1673ffffffffffffffffffffffffffffffffffffffff168152602001908152602001600020805461034f906108ef565b90501415610392576040517f08c379a000000000000000000000000000000000000000000000000000000000815260040161038990610792565b60405180910390fd5b816040516020016103a39190610727565b604051602081830303815290604052805190602001206000803373ffffffffffffffffffffffffffffffffffffffff1673ffffffffffffffffffffffffffffffffffffffff168152602001908152602001600020604051602001610407919061073e565b60405160208183030381529060405280519060200120149050919050565b828054610431906108ef565b90600052602060002090601f016020900481019282610453576000855561049a565b82601f1061046c57805160ff191683800117855561049a565b8280016001018555821561049a579182015b8281111561049957825182559160200191906001019061047e565b5b5090506104a791906104ab565b5090565b5b808211156104c45760008160009055506001016104ac565b5090565b60006104db6104d684610803565b6107d2565b9050828152602081018484840111156104f357600080fd5b6104fe8482856108ad565b509392505050565b60008135905061051581610990565b92915050565b600082601f83011261052c57600080fd5b813561053c8482602086016104c8565b91505092915050565b60006020828403121561055757600080fd5b600061056584828501610506565b91505092915050565b60006020828403121561058057600080fd5b600082013567ffffffffffffffff81111561059a57600080fd5b6105a68482850161051b565b91505092915050565b6105b881610881565b82525050565b60006105c982610848565b6105d38185610853565b93506105e38185602086016108bc565b6105ec8161097f565b840191505092915050565b600061060282610848565b61060c8185610864565b935061061c8185602086016108bc565b80840191505092915050565b60008154610635816108ef565b61063f8186610864565b9450600182166000811461065a576001811461066b5761069e565b60ff1983168652818601935061069e565b61067485610833565b60005b8381101561069657815481890152600182019150602081019050610677565b838801955050505b50505092915050565b60006106b4601383610853565b91507f55736572206e6f742072656769737465726564000000000000000000000000006000830152602082019050919050565b60006106f4601783610853565b91507f5573657220616c726561647920726567697374657265640000000000000000006000830152602082019050919050565b600061073382846105f7565b915081905092915050565b600061074a8284610628565b915081905092915050565b600060208201905061076a60008301846105af565b92915050565b6000602082019050818103600083015261078a81846105be565b905092915050565b600060208201905081810360008301526107ab816106a7565b9050919050565b600060208201905081810360008301526107cb816106e7565b9050919050565b6000604051905081810181811067ffffffffffffffff821117156107f9576107f8610950565b5b8060405250919050565b600067ffffffffffffffff82111561081e5761081d610950565b5b601f19601f8301169050602081019050919050565b60008190508160005260206000209050919050565b600081519050919050565b600082825260208201905092915050565b600081905092915050565b600061087a8261088d565b9050919050565b60008115159050919050565b600073ffffffffffffffffffffffffffffffffffffffff82169050919050565b82818337600083830152505050565b60005b838110156108da5780820151818401526020810190506108bf565b838111156108e9576000848401525b50505050565b6000600282049050600182168061090757607f821691505b6020821081141561091b5761091a610921565b5b50919050565b7f4e487b7100000000000000000000000000000000000000000000000000000000600052602260045260246000fd5b7f4e487b7100000000000000000000000000000000000000000000000000000000600052604160045260246000fd5b6000601f19601f8301169050919050565b6109998161086f565b81146109a457600080fd5b5056fea26469706673582212202ac8b2f58a32eedba0b92613f76ca5f6c48fc52a395ca43472078bc2467db68f64736f6c63430008000033",
  "immutableReferences": {},
  "source": "// Solidity contract for storing user passwords\r\npragma solidity ^0.8.0;\r\n\r\ncontract eKYC {\r\n    mapping(address => string) private userPasswords;\r\n\r\n    // Register user with hashed password\r\n    function registerUser(string memory hashedPassword) public {\r\n        require(bytes(userPasswords[msg.sender]).length == 0, \"User already registered\");\r\n        userPasswords[msg.sender] = hashedPassword;\r\n    }\r\n\r\n    // Verify user by checking hashed password\r\n    function verifyUser(string memory hashedPassword) public view returns (bool) {\r\n        require(bytes(userPasswords[msg.sender]).length != 0, \"User not registered\");\r\n        return keccak256(abi.encodePacked(userPasswords[msg.sender])) == keccak256(abi.encodePacked(hashedPassword));\r\n    }\r\n\r\n    // Getter function to retrieve hashed password\r\n    function getUserPassword(address user) public view returns (string memory) {\r\n        require(bytes(userPasswords[user]).length != 0, \"User not registered\");\r\n        return userPasswords[user];\r\n    }\r\n}\r\n",
  "sourcePath": "C:\\Users\\WINDOWS\\Documents\\CSS400_GDPR-RBC\\contracts\\eKYC.sol",
  "compiler": {
    "name": "solc",
    "version": "0.8.0+commit.c7dfd78e.Emscripten.clang"
  },
  "schemaVersion": "3.4.16",
  "updatedAt": "2024-11-03T13:38:01.974Z",
  "networkType": "ethereum",
  "devdoc": {
    "kind": "dev",
    "methods": {},
    "version": 1
  },
  "userdoc": {
    "kind": "user",
    "methods": {},
    "version": 1
  }
}