{
  "contractName": "ProofStorage",
  "abi": [
    {
      "inputs": [
        {
          "internalType": "uint256",
          "name": "",
          "type": "uint256"
        }
      ],
      "name": "proofs",
      "outputs": [
        {
          "internalType": "string",
          "name": "",
          "type": "string"
        }
      ],
      "stateMutability": "view",
      "type": "function",
      "constant": true
    },
    {
      "inputs": [
        {
          "internalType": "uint256",
          "name": "customerId",
          "type": "uint256"
        },
        {
          "internalType": "string",
          "name": "proof",
          "type": "string"
        }
      ],
      "name": "storeProof",
      "outputs": [],
      "stateMutability": "nonpayable",
      "type": "function"
    },
    {
      "inputs": [
        {
          "internalType": "uint256",
          "name": "customerId",
          "type": "uint256"
        }
      ],
      "name": "getProof",
      "outputs": [
        {
          "internalType": "string",
          "name": "",
          "type": "string"
        }
      ],
      "stateMutability": "view",
      "type": "function",
      "constant": true
    }
  ],
  "bytecode": "0x608060405234801561001057600080fd5b5061042d806100206000396000f3fe608060405234801561001057600080fd5b50600436106100415760003560e01c806311149ada146100465780631da2e5d61461006f5780639ddaf5aa14610084575b600080fd5b61005961005436600461028e565b610097565b6040516100669190610353565b60405180910390f35b61008261007d3660046102a6565b610139565b005b61005961009236600461028e565b61015b565b60008181526020819052604090208054606091906100b4906103a6565b80601f01602080910402602001604051908101604052809291908181526020018280546100e0906103a6565b801561012d5780601f106101025761010080835404028352916020019161012d565b820191906000526020600020905b81548152906001019060200180831161011057829003601f168201915b50505050509050919050565b6000828152602081815260409091208251610156928401906101f5565b505050565b60006020819052908152604090208054610174906103a6565b80601f01602080910402602001604051908101604052809291908181526020018280546101a0906103a6565b80156101ed5780601f106101c2576101008083540402835291602001916101ed565b820191906000526020600020905b8154815290600101906020018083116101d057829003601f168201915b505050505081565b828054610201906103a6565b90600052602060002090601f0160209004810192826102235760008555610269565b82601f1061023c57805160ff1916838001178555610269565b82800160010185558215610269579182015b8281111561026957825182559160200191906001019061024e565b50610275929150610279565b5090565b5b80821115610275576000815560010161027a565b60006020828403121561029f578081fd5b5035919050565b600080604083850312156102b8578081fd5b8235915060208084013567ffffffffffffffff808211156102d7578384fd5b818601915086601f8301126102ea578384fd5b8135818111156102fc576102fc6103e1565b604051601f8201601f191681018501838111828210171561031f5761031f6103e1565b6040528181528382018501891015610335578586fd5b81858501868301378585838301015280955050505050509250929050565b6000602080835283518082850152825b8181101561037f57858101830151858201604001528201610363565b818111156103905783604083870101525b50601f01601f1916929092016040019392505050565b6002810460018216806103ba57607f821691505b602082108114156103db57634e487b7160e01b600052602260045260246000fd5b50919050565b634e487b7160e01b600052604160045260246000fdfea264697066735822122081c6da9fad3a99c99157e0cb2bc24e6d51634c150edeff95f28d9850012f1b4a64736f6c63430008000033",
  "immutableReferences": {},
  "source": "// SPDX-License-Identifier: MIT\r\npragma solidity ^0.8.0;\r\n\r\ncontract ProofStorage {\r\n    mapping(uint256 => string) public proofs;\r\n\r\n    // Store Proof for Customer\r\n    function storeProof(uint256 customerId, string memory proof) public {\r\n        proofs[customerId] = proof;\r\n    }\r\n\r\n    // Retrieve Proof for Customer\r\n    function getProof(uint256 customerId) public view returns (string memory) {\r\n        return proofs[customerId];\r\n    }\r\n}\r\n",
  "sourcePath": "C:\\Users\\WINDOWS\\Documents\\CSS400_GDPR-RBC\\contracts\\Proof.sol",
  "compiler": {
    "name": "solc",
    "version": "0.8.0+commit.c7dfd78e.Emscripten.clang"
  },
  "schemaVersion": "3.4.16",
  "updatedAt": "2025-03-12T16:12:52.060Z",
  "networkType": "ethereum",
  "devdoc": {
    "kind": "dev",
    "methods": {},
    "version": 1
  },
  "userdoc": {
    "kind": "user",
    "methods": {},
    "version": 1
  }
}